S019000056656C696B695F526F626F745F323031352E737265631B
S113000049C0000065C0000063C0000061C000007A
S11300105FC000005DC000005BC0000059C000006C
S113002057C0000055C0000053C0000051C000007C
S113003079C400004DC000004BC0000049C000005E
S113004047C0000045C0000044C0000041C000009B
S11300503FC00000DAC400003BC0000094C40000AC
S113006037C0000035C0000033C0000031C00000BC
S11300702FC000002DC000002BC0000029C00000CC
S113008052C5000025C000000CC5000021C00000BE
S11300901FC0000011241FBECFEFD0E1DEBFCDBFD3
S11300A011E0A0E0B1E0EEE7F2E100E00BBF02C036
S11300B007900D92A630B107D9F722E0A6E0B1E08F
S11300C001C01D92AE35B207E1F72FD20C943D0961
S11300D097CF1F920F9200905F000F92112400900F
S11300E05B000F922F933F934F935F938F939F9354
S11300F0EF93FF93CF93DF9300D000D0CDB7DEB75B
S11301008DEE90E0FC0180818B831982A4C08DEE7A
S113011090E029812295207FFC0120838EEE90E0DF
S1130120FC018081829586958770882F90E081708C
S11301309927009709F470C08FEE90E020E8FC0145
S113014020838EEE90E02EEE30E0F90120812F7DA9
S1130150FC01208382EF90E0FC01808182958695EA
S11301608770282F83EF90E0FC018081882F90E036
S1130170880F991F880F991F880F991F822B8C83D2
S11301801A8226C08C81882F90E081509048880F75
S1130190991F8A5F9E4FFC01208131818C81882FB9
S11301A090E00197865E9E4FFC018081482F50E0CD
S11301B08A81882F90E0840F951F820F931F2AEF66
S11301C030E0F9012081FC0120838A818F5F8A83DA
S11301D08A818830B8F28C81882F90E00197865EFE
S11301E09E4FFC0120812F5FFC012083253041F4C8
S11301F08C81882F90E00197865E9E4FFC011082CF
S11302008C81882F90E00197825D9E4FFC012081B4
S11302102F5FFC01208323C08EEE90E0FC018081DF
S11302208295869586958370882F90E081709927B2
S1130230009771F08FEE90E0FC0110828EEE90E05A
S11302402EEE30E0F90120812F7BFC01208307C0D2
S113025089818F5F898389818F3008F458CF8DEE2F
S113026090E02B81FC0120838AED90E02AED30E0C0
S1130270F9012081FC0120830F900F900F900F90C3
S1130280DF91CF91FF91EF919F918F915F914F916A
S11302903F912F910F9000925B000F9000925F00AE
S11302A00F901F901895CF93DF9300D0CDB7DEB792
S11302B088ED90E021E0FC01208319823EC08DEEA0
S11302C090E029812295207FFC0120838EEE90E02E
S11302D0FC0110828FEE90E0FC01108283EF90E02D
S11302E0FC01108282EF90E0FC01108281EF90E02B
S11302F0FC01108280EF90E0FC01108287EF90E017
S1130300FC01108286EF90E0FC01108285EF90E002
S1130310FC01108284EF90E0FC0110821A8207C075
S11303208AEF90E0FC0110828A818F5F8A838A8140
S11303308830B0F389818F5F898389818F3008F495
S1130340BECF88ED90E022E0FC01208382EE90E0B5
S113035021E0FC01208383EE90E028E0FC0120836F
S113036084EE90E02EE5FC01208385EE90E0FC0114
S113037010828BED90E020EBFC0120838FED90E068
S11303802FE7FC0120838EED90E02FEFFC0120830A
S113039078940F900F90DF91CF910895CF93DF93CE
S11303A000D000D0CDB7DEB79C838B838DEE90E078
S11303B0FC0180818A83000089ED90E0FC0180814A
S11303C082958F70882F90E0817099270097A1F70C
S11303D089ED90E0FC018081869586958695882F2D
S11303E090E081709927009739F7198249C08DEE02
S11303F090E029812295207FFC0120838FEE90E0FC
S1130400FC0180818295869586958370882321F0EE
S113041089818F5F898334C08FEE90E02FE0FC01E7
S1130420208383EF90E02B813C81332736952795F9
S11304303695279536952795FC01208382EF90E029
S11304402B812295220F207EFC01208386EF90E0F1
S113045020EEFC01208387EF90E02FEFFC01208346
S11304608FEE90E02FEE30E0F90120812068FC014E
S113047020838DEE90E02A81FC01208381E00AC074
S113048089818F3008F4B3CF8DEE90E02A81FC018E
S1130490208380E00F900F900F900F90DF91CF9109
S11304A008950F931F93CF93DF9300D0CDB7DEB79A
S11304B08A83F9DE19822EC08981882F90E0019603
S11304C06DDF8981882F90E0880F991F8C010A5F66
S11304D01E4F61E070E085E090E087D5F8019183DC
S11304E080838981882F90E02981222F30E04981FF
S11304F0442F50E060E0425D5E4FFA0160832C5D62
S11305003E4FF9016083865E9E4FFC0160838981C2
S11305108F5F898399818A81981770F20F900F9069
S1130520DF91CF911F910F910895CF93DF93CDB7B2
S1130530DEB72E970FB6F894DEBF0FBECDBF88EEA0
S113054093E0A3D183E390E02FEFFC01208367E0E5
S113055082E290E080D08093580266E082E290E0EC
S11305607AD08093570264E082E290E074D0809362
S1130570560284E096DF88EE93E087D180E090E035
S1130580AAE7B4E489839A83AB83BC8320E030E494
S11305904CE155E469817A818B819C81C3D4DC016F
S11305A0CB018D839E83AF83B88720E030E040E8A1
S11305B05FE36D817E818F81988566D388232CF4D7
S11305C081E090E09A8789873BC020E03FEF4FE7C6
S11305D057E46D817E818F819885A0D418163CF5EF
S11305E020E030E040E251E469817A818B819C8192
S11305F099D4DC01CB01BC01CD01B2D3DC01CB0128
S11306009A8789870FC08AEF90E09C878B878B85B8
S11306109C850197F1F79C878B8789859A8501973B
S11306209A87898789859A85009769F713C06D81B0
S11306307E818F81988594D3DC01CB019A87898749
S113064089859A859E878D878D859E850197F1F78B
S11306509E878D87FFCF0F931F93CF93DF9300D097
S113066000D0CDB7DEB79B838A836C8380914C0125
S11306708A3010F080E08EC080914C01082F10E089
S113068086E090E0CCD49C01C801880F991F885C57
S11306909E4FFC013183208380914C01882F90E090
S11306A0880F991F885C9E4FFC018081918100977F
S11306B011F48FEF6FC080914C01882F90E0880F68
S11306C0991F885C9E4FFC01808191812A813B8126
S11306D0FC013183208380914C01882F90E0880FA6
S11306E0991F885C9E4FFC01808191812C81FC01C3
S11306F02283198216C080914C01882F90E0880FC4
S1130700991F885C9E4FFC01208131818981882F4B
S113071090E0820F931F0396FC01108289818F5F02
S113072089838981833038F38A819B8101972A8167
S11307303B8121503109F9012081622F2C81422F04
S113074050E021E030E002C0220F331F4A95E2F767
S113075020952623FC0120838A819B81FC018081D2
S1130760482F8C81282F30E081E090E002C0880F70
S1130770991F2A95E2F7842B282F8A819B81FC01FB
S1130780208380914C01898380914C018F5F8093F9
S11307904C0189810F900F900F900F90DF91CF91B2
S11307A01F910F910895CF93DF9300D0CDB7DEB79B
S11307B08A8319828A81882F90E0880F991F885C28
S11307C09E4FFC0180819181FC018081918102977F
S11307D0FC018081882F90E02A81222F30E0220FB3
S11307E0331F285C3E4FF90120813181F9012281B8
S11307F0222F30E0022E02C0959587950A94E2F7E5
S11308008170898389810F900F90DF91CF91089532
S1130810EF92FF920F931F93CF93DF931F92CDB765
S1130820DEB780914D018F5F80934D0180914D0122
S1130830833010F010924D0119821AC08981882FDB
S113084090E0880F991F885C9E4FFC01E080F18046
S113085080914D01082F10E08981A5DF282FC70161
S1130860800F911F0396FC01208389818F5F898308
S113087080914C019981981708F30F90DF91CF91E3
S11308801F910F91FF90EF9008950F931F93CF93B3
S1130890DF9300D0CDB7DEB79A83898380E890E0F8
S11308A0FC01108281E890E029E0FC01208308E843
S11308B010E089819A81CC01A0E0B0E0BC01CD01B7
S11308C07BD2DC01CB019C01AD0160E876E988E1D3
S11308D09BE4DED1DC01CB0120E030E040E05FE3CB
S11308E0BC01CD016DD1DC01CB01BC01CD0138D2FD
S11308F0DC01CB01F801918380838FE690E022E054
S1130900FC0120838FE590E02FE530E0F9012081A0
S11309102068FC0120830F900F90DF91CF911F91ED
S11309200F9108951F920F9200905F000F9211246F
S113093000905B000F922F933F934F935F936F93BD
S11309407F938F939F93AF93BF93EF93FF93CF9333
S1130950DF93CDB7DEB75CDFDF91CF91FF91EF91ED
S1130960BF91AF919F918F917F916F915F914F91C3
S11309703F912F910F9000925B000F9000925F00C7
S11309800F901F9018951F920F9200905F000F9286
S1130990112400905B000F922F933F938F939F93AA
S11309A0EF93FF93CF93DF93CDB7DEB780918E01A2
S11309B08823D1F080918E01815080938E0186EC42
S11309C090E020918F01222F30E0225B3E4FF9010D
S11309D02081FC01208380918F018F5F80938F01A0
S11309E0803411F410928F01DF91CF91FF91EF9138
S11309F09F918F913F912F910F9000925B000F90E8
S1130A0000925F000F901F9018951F920F92009014
S1130A105F000F92112400905B000F922F933F937D
S1130A208F939F93EF93FF93CF93DF931F92CDB751
S1130A30DEB780EC90E0FC01808189838981882F76
S1130A4090E08C7199270097D1F48091D001882F80
S1130A5090E026EC30E0F901208180579E4FFC01A4
S1130A6020838091D0018F5F8093D001803411F472
S1130A701092D0018091D1018F5F8093D1010F90AA
S1130A80DF91CF91FF91EF919F918F913F912F91A2
S1130A900F9000925B000F9000925F000F901F90E8
S1130AA018951F920F9200905F000F9211240090EE
S1130AB05B000F922F933F938F939F93EF93FF933A
S1130AC0CF93DF93CDB7DEB7809112028823D1F0A4
S1130AD0809112028150809312028EEC90E020915A
S1130AE01302222F30E02E523E4FF9012081FC01E7
S1130AF02083809113028F5F80931302803411F45A
S1130B0010921302DF91CF91FF91EF919F918F91FA
S1130B103F912F910F9000925B000F9000925F0025
S1130B200F901F9018951F920F9200905F000F92E4
S1130B30112400905B000F922F933F938F939F9308
S1130B40EF93FF93CF93DF931F92CDB7DEB788EC7B
S1130B5090E0FC01808189838981882F90E08C71E9
S1130B6099270097D1F480915402882F90E02EECBD
S1130B7030E0F90120818C5E9D4FFC01208380913F
S1130B8054028F5F80935402803411F41092540203
S1130B90809155028F5F809355020F90DF91CF9122
S1130BA0FF91EF919F918F913F912F910F90009220
S1130BB05B000F9000925F000F901F9018955058A3
S1130BC0BB27AA270ED070C161D130F066D120F0C6
S1130BD031F49F3F11F41EF456C10EF4E095E7FB87
S1130BE04CC1E92F72D180F3BA17620773078407E7
S1130BF0950718F071F49EF58AC10EF4E0950B2E5A
S1130C00BA2FA02D0B01B90190010C01CA01A0015A
S1130C101124FF27591B99F0593F50F4503E68F1B5
S1130C201A16F040A22F232F342F4427585FF3CFF6
S1130C30469537952795A795F0405395C9F77EF4C7
S1130C401F16BA0B620B730B840BBAF09150A1F010
S1130C50FF0FBB1F661F771F881FC2F70EC0BA0F96
S1130C60621F731F841F48F4879577956795B7951E
S1130C70F7959E3F08F0B3CF9395880F08F0992716
S1130C80EE0F979587950895D4D008F481E00895E0
S1130C900CD00AC102D140F0F9D030F021F45F3F0A
S1130CA019F0EBC0511134C1EEC00FD198F3992360
S1130CB0C9F35523B1F3951B550BBB27AA2762171C
S1130CC07307840738F09F5F5F4F220F331F441F61
S1130CD0AA1FA9F333D00E2E3AF0E0E830D0915099
S1130CE05040E695001CCAF729D0FE2F27D0660F86
S1130CF0771F881FBB1F261737074807AB07B0E8C5
S1130D0009F0BB0B802DBF01FF2793585F4F2AF0DA
S1130D109E3F510568F0B1C0FBC05F3FECF3983EC5
S1130D20DCF3869577956795B795F7959F5FC9F737
S1130D30880F911D9695879597F90895E1E0660FC0
S1130D40771F881FBB1F621773078407BA0720F039
S1130D50621B730B840BBA0BEE1F88F7E0950895A2
S1130D60BCD088F09F5790F0B92F9927B751A0F0C5
S1130D70D1F0660F771F881F991F1AF0BA95C9F72B
S1130D8012C0B13081F0C3D0B1E00895C0C0672F64
S1130D90782F8827B85F39F0B93FCCF386957795DB
S1130DA06795B395D9F73EF49095809570956195C4
S1130DB07F4F8F4F9F4F0895E89409C097FB3EF4EF
S1130DC090958095709561957F4F8F4F9F4F992394
S1130DD0A9F0F92F96E9BB279395F6958795779512
S1130DE06795B795F111F8CFFAF4BB0F11F460FFD2
S1130DF01BC06F5F7F4F8F4F9F4F16C0882311F02A
S1130E0096E911C0772321F09EE8872F762F05C03D
S1130E10662371F096E8862F70E060E02AF09A95D8
S1130E20660F771F881FDAF7880F9695879597F9CD
S1130E300895990F0008550FAA0BE0E8FEEF161667
S1130E401706E807F907C0F012161306E407F507BA
S1130E5098F0621B730B840B950B39F40A2661F02E
S1130E60232B242B252B21F408950A2609F4A140D1
S1130E70A6958FEF811D811D089597F99F6780E8DE
S1130E8070E060E008959FEF80EC089500240A94D8
S1130E901616170618060906089500240A94121651
S1130EA01306140605060895092E0394000C11F484
S1130EB0882352F0BB0F40F4BF2B11F460FF04C031
S1130EC06F5F7F4F8F4F9F4F089557FD9058440F8A
S1130ED0551F59F05F3F71F04795880F97FB991F95
S1130EE061F09F3F79F08795089512161306140652
S1130EF0551FF2CF4695F1DF08C0161617061806DF
S1130F00991FF1CF86957105610508940895E894B9
S1130F10BB2766277727CB0197F908958ADF08F462
S1130F208FEF08950BD0C0CFB1DF28F0B6DF18F0F3
S1130F30952309F0A2CFA7CF1124EACFC6DFA0F3EF
S1130F40959FD1F3950F50E0551F629FF001729F5A
S1130F50BB27F00DB11D639FAA27F00DB11DAA1F79
S1130F60649F6627B00DA11D661F829F2227B00DC6
S1130F70A11D621F739FB00DA11D621F839FA00D51
S1130F80611D221F749F3327A00D611D231F849FA1
S1130F90600D211D822F762F6A2F11249F575040F8
S1130FA08AF0E1F088234AF0EE0FFF1FBB1F661F93
S1130FB0771F881F91505040A9F79E3F510570F04C
S1130FC05CCFA6CF5F3FECF3983EDCF38695779534
S1130FD06795B795F795E7959F5FC1F7FE2B880F47
S1130FE0911D9695879597F908950F931F93CF9325
S1130FF0DF93869F8001879F100D969F100D11240B
S1131000C8010DD0EC01009721F0A80160E070E068
S11310102DD1CE01DF91CF911F910F910895CF93E0
S1131020DF938230910510F482E090E0E0915C025D
S1131030F0915D0220E030E0A0E0B0E0309739F1BB
S11310404081518148175907B8F04817590771F47E
S113105082819381109729F013969C938E93129713
S11310602CC090935D0280935C0227C0211531054A
S113107031F04217530718F0A901DB0101C0EF0159
S11310809A01BD01DF010280F381E02DD7CF211544
S11310903105F9F0281B390B2430310580F48A819D
S11310A09B816115710521F0FB019383828304C048
S11310B090935D0280935C02FE01329644C0FE016F
S11310C0E20FF31F819391932250310939832883CE
S11310D03AC020915A0230915B02232B41F42091B3
S11310E002013091030130935B0220935A02209154
S11310F00001309101012115310541F42DB73EB7AE
S11311004091040150910501241B350BE0915A02D2
S1131110F0915B02E217F307A0F42E1B3F0B281794
S1131120390778F0AC014E5F5F4F2417350748F05C
S11311304E0F5F1F50935B0240935A028193919329
S113114002C0E0E0F0E0CF01DF91CF910895CF93AA
S1131150DF93009709F487C0FC013297138212824F
S1131160C0915C02D0915D02209781F4208131818D
S1131170280F391F80915A0290915B0282179307BE
S113118079F5F0935B02E0935A026DC0DE0120E032
S113119030E0AE17BF0750F412964D915C9113974F
S11311A09D014115510509F1DA01F3CFB383A283FF
S11311B040815181840F951F8A179B0771F48D918B
S11311C09C911197840F951F0296918380831296A8
S11311D08D919C911397938382832115310529F472
S11311E0F0935D02E0935C023EC0D9011396FC9338
S11311F0EE9312974D915D91A40FB51FEA17FB076B
S113120079F480819181840F951F0296D9011196FA
S11312109C938E938281938113969C938E931297C1
S1131220E0E0F0E08A819B81009719F0FE01EC0177
S1131230F9CFCE01029628813981820F931F209124
S11312405A0230915B022817390769F4309729F460
S113125010925D0210925C0202C013821282D0933B
S11312605B02C0935A02DF91CF910895DC0101C063
S11112706D9341505040E0F70895F894FFCF7D
S109127E00005E022000E6
S9030000FC
