S019000056656C696B695F526F626F745F323031352E737265631B
S113000049C0000065C0000063C0000061C000007A
S11300105FC000005DC000005BC0000059C000006C
S113002057C0000055C0000053C0000051C000007C
S11300300C946F0E4DC000004BC0000049C000007E
S113004047C0000045C0000044C0000041C000009B
S11300503FC000000C94E20E3BC000000C94A00EC4
S113006037C0000035C0000033C0000031C00000BC
S11300702FC000002DC000002BC0000029C00000CC
S11300800C94700F25C000000C942E0F21C00000AA
S11300901FC0000011241FBECFEFD0E1DEBFCDBFD3
S11300A011E0A0E0B1E0E8E3F6E200E00BBF02C03B
S11300B007900D92AE32B107D9F722E0AEE2B1E07B
S11300C001C01D92A638B207E1F74CD50C941A135F
S11300D097CF1F920F9200905F000F92112400900F
S11300E05B000F922F933F934F935F938F939F9354
S11300F0EF93FF93CF93DF9300D000D0CDB7DEB75B
S11301008DEE90E0FC0180818B831982A4C08DEE7A
S113011090E029812295207FFC0120838EEE90E0DF
S1130120FC018081829586958770882F90E081708C
S11301309927009709F470C08FEE90E020E8FC0145
S113014020838EEE90E02EEE30E0F90120812F7DA9
S1130150FC01208382EF90E0FC01808182958695EA
S11301608770282F83EF90E0FC018081882F90E036
S1130170880F991F880F991F880F991F822B8C83D2
S11301801A8226C08C81882F90E081509048880F75
S1130190991F825D9E4FFC01208131818C81882FC3
S11301A090E001978E5B9E4FFC018081482F50E0C8
S11301B08A81882F90E0840F951F820F931F2AEF66
S11301C030E0F9012081FC0120838A818F5F8A83DA
S11301D08A818830B8F28C81882F90E001978E5BF9
S11301E09E4FFC0120812F5FFC012083253041F4C8
S11301F08C81882F90E001978E5B9E4FFC011082CA
S11302008C81882F90E001978A5A9E4FFC012081AF
S11302102F5FFC01208323C08EEE90E0FC018081DF
S11302208295869586958370882F90E081709927B2
S1130230009771F08FEE90E0FC0110828EEE90E05A
S11302402EEE30E0F90120812F7BFC01208307C0D2
S113025089818F5F898389818F3008F458CF8DEE2F
S113026090E02B81FC0120838AED90E02AED30E0C0
S1130270F9012081FC0120830F900F900F900F90C3
S1130280DF91CF91FF91EF919F918F915F914F916A
S11302903F912F910F9000925B000F9000925F00AE
S11302A00F901F901895CF93DF9300D0CDB7DEB792
S11302B088ED90E021E0FC01208319823EC08DEEA0
S11302C090E029812295207FFC0120838EEE90E02E
S11302D0FC0110828FEE90E0FC01108283EF90E02D
S11302E0FC01108282EF90E0FC01108281EF90E02B
S11302F0FC01108280EF90E0FC01108287EF90E017
S1130300FC01108286EF90E0FC01108285EF90E002
S1130310FC01108284EF90E0FC0110821A8207C075
S11303208AEF90E0FC0110828A818F5F8A838A8140
S11303308830B0F389818F5F898389818F3008F495
S1130340BECF88ED90E022E0FC01208382EE90E0B5
S113035021E0FC01208383EE90E028E0FC0120836F
S113036084EE90E02EE5FC01208385EE90E0FC0114
S113037010828BED90E020EBFC0120838FED90E068
S11303802FE7FC0120838EED90E02FEFFC0120830A
S113039078940F900F90DF91CF910895CF93DF93CE
S11303A000D000D0CDB7DEB79C838B838DEE90E078
S11303B0FC0180818A83000089ED90E0FC0180814A
S11303C082958F70882F90E0817099270097A1F70C
S11303D089ED90E0FC018081869586958695882F2D
S11303E090E081709927009739F7198249C08DEE02
S11303F090E029812295207FFC0120838FEE90E0FC
S1130400FC0180818295869586958370882321F0EE
S113041089818F5F898334C08FEE90E02FE0FC01E7
S1130420208383EF90E02B813C81332736952795F9
S11304303695279536952795FC01208382EF90E029
S11304402B812295220F207EFC01208386EF90E0F1
S113045020EEFC01208387EF90E02FEFFC01208346
S11304608FEE90E02FEE30E0F90120812068FC014E
S113047020838DEE90E02A81FC01208381E00AC074
S113048089818F3008F4B3CF8DEE90E02A81FC018E
S1130490208380E00F900F900F900F90DF91CF9109
S11304A008950F931F93CF93DF9300D0CDB7DEB79A
S11304B08A83F9DE19822FC08981882F90E0019602
S11304C06DDF8981882F90E0880F991F8C01025D70
S11304D01E4F61E070E085E090E00E94D211F801C7
S11304E0918380838981882F90E02981222F30E0B5
S11304F04981442F50E060E04A5A5E4FFA0160831C
S1130500245B3E4FF90160838E5B9E4FFC01608348
S113051089818F5F898399818A81981768F20F9006
S11305200F90DF91CF911F910F910895CF93DF9397
S113053000D000D0CDB7DEB79B838A836C830000E4
S11305408C81882F90E001978A5A9E4FFC0180810C
S11305508823B1F319822CC08981882F90E02A81E5
S11305603B81820F931F2C81222F30E02150304891
S1130570220F331F225D3E4FF901408151812C81AE
S1130580222F30E021503109245B3E4FF9012081B4
S1130590622F70E02981222F30E0260F371F240FAD
S11305A0351FF9012081FC01208389818F5F8983B4
S11305B08981883088F28C81882F90E00197845B50
S11305C09E4FFC0120812F5FFC012083253041F4E4
S11305D08C81882F90E00197845B9E4FFC011082F0
S11305E08C81882F90E001979C012A5A3E4FF90193
S11305F0208121508A5A9E4FFC01208380E00F9075
S11306000F900F900F90DF91CF910895CF93DF93C8
S113061000D000D000D0CDB7DEB79D838C836E832D
S1130620000089ED90E0FC01808182958F70882F15
S113063090E0817099270097A1F789ED90E0FC0183
S11306408081869586958695882F90E0817099277C
S1130650009739F78DEE90E0FC0180818B831A823C
S113066015C08DEE90E02A812295207FFC01208325
S11306708FEE90E0FC01808182958695869583704B
S1130680882309F406C08A818F5F8A838A818F3028
S113069040F38A818F3011F48FEF39C082EF90E0FC
S11306A02E812295220F207EFC01208383EF90E08F
S11306B02E81269526952695FC0120838FEE90E0C9
S11306C028E0FC012083198210C08AEF90E0298180
S11306D0222F30E04C815D81240F351FF9012081E8
S11306E0FC01208389818F5F89838981883068F345
S11306F08FEE90E02FEE30E0F90120812064FC01C0
S113070020838DEE90E02B81FC01208380E02696EF
S11307100FB6F894DEBF0FBECDBFDF91CF91089521
S1130720CF93DF93CDB7DEB72E970FB6F894DEBF25
S11307300FBECDBF80917E020E947B0D813069F097
S113074080917F020E947B0D813039F0809180027C
S11307500E947B0D813009F08EC084E390E023E099
S1130760FC01208380E09DD2000080917E020E94E3
S11307707B0D8130D1F380917F020E947B0D81300B
S1130780A1F3809180020E947B0D813071F380E09F
S113079090E0A8ECB2E489839A83AB83BC8320E025
S11307A030E44CE155E469817A818B819C810E941B
S11307B06F11DC01CB018D839E83AF83B88720E06A
S11307C030E040E85FE36D817E818F8198850E94EF
S11307D0211088232CF481E090E09A8789873FC018
S11307E020E03FEF4FE757E46D817E818F8198854C
S11307F00E946B1118164CF520E030E040E251E401
S113080069817A818B819C810E946F11DC01CB010B
S1130810BC01CD010E948D10DC01CB019A87898730
S11308200FC08AEF90E09C878B878B859C8501970E
S1130830F1F79C878B8789859A8501979A878987A1
S113084089859A85009769F714C06D817E818F81AF
S113085098850E948D10DC01CB019A878987898550
S11308609A859E878D878D859E850197F1F79E8752
S11308708D8782E001C080E02E960FB6F894DEBF2B
S11308800FBECDBFDF91CF910895EF92FF920F93EA
S1130890CF93DF93CDB7DEB7A6970FB6F894DEBF3C
S11308A00FBECDBF19821A8281E08B831AA219A2CE
S11308B01CA21BA21EA21DA249A15AA16BA17CA12C
S11308C08DA19EA1C1D680E090E0A8E4B2E48D831E
S11308D09E83AF83B88720E030E44CE155E46D811A
S11308E07E818F8198850E946F11DC01CB018987FD
S11308F09A87AB87BC8720E030E040E85FE36985F6
S11309007A858B859C850E94211088232CF481E0B4
S113091090E09E878D873FC020E03FEF4FE757E48C
S113092069857A858B859C850E946B1118164CF518
S113093020E030E040E251E46D817E818F81988532
S11309400E946F11DC01CB01BC01CD010E948D100E
S1130950DC01CB019E878D870FC08AEF90E0988BD6
S11309608F878F8598890197F1F7988B8F878D856D
S11309709E8501979E878D878D859E85009769F753
S113098014C069857A858B859C850E948D10DC0155
S1130990CB019E878D878D859E859A8B898B8989CE
S11309A09A890197F1F79A8B898B84E390E0FC0193
S11309B010828B81882F90E08130910509F083CFDC
S11309C08A818983C9C08981882F90E0880F991F03
S11309D09C01220F331F220F331F820F931F825F4C
S11309E09E4FFC01208131818981882F90E0880FFE
S11309F0991FAC01440F551F440F551F840F951FB9
S1130A00835F9E4FFC0170818981882F90E0880F5D
S1130A10991FAC01440F551F440F551F840F951F98
S1130A20845F9E4FFC0160818981882F90E0880F4C
S1130A30991FAC01440F551F440F551F840F951F78
S1130A40FC01EA5FFE4F7901072F262F4081518177
S1130A50628173818481958149D28C838C818130B8
S1130A6009F077C084E390E02FEFFC01208380E05D
S1130A7090E4ACE9B5E48B8B9C8BAD8BBE8B20E012
S1130A8030E44CE155E46B897C898D899E890E9410
S1130A906F11DC01CB018F8B988FA98FBA8F20E067
S1130AA030E040E85FE36F89788D898D9A8D0E94EC
S1130AB0211088232CF481E090E09C8F8B8F3FC021
S1130AC020E03FEF4FE757E46F89788D898D9A8D49
S1130AD00E946B1118164CF520E030E040E251E41E
S1130AE06B897C898D899E890E946F11DC01CB0101
S1130AF0BC01CD010E948D10DC01CB019C8F8B8F3A
S1130B000FC08AEF90E09E8F8D8F8D8D9E8D019703
S1130B10F1F79E8F8D8F8B8D9C8D01979C8F8B8F82
S1130B208B8D9C8D009769F714C06F89788D898DA2
S1130B309A8D0E948D10DC01CB019C8F8B8F8B8D45
S1130B409C8D98A38F8F8F8D98A10197F1F798A30F
S1130B508F8F89818F5F89838981843008F433CFB3
S1130B600000B1CECF93DF93CDB7DEB72E970FB68B
S1130B70F894DEBF0FBECDBF88EE93E00E94220E34
S1130B8083E390E02FEFFC01208367E082E290E0B2
S1130B900AD78093800266E082E290E004D78093D3
S1130BA07F0264E082E290E0FED680937E0284E0DD
S1130BB078DC88EE93E00E94220E80E090E0AAE7C1
S1130BC0B4E489839A83AB83BC8320E030E44CE1B2
S1130BD055E469817A818B819C810E946F11DC01CB
S1130BE0CB018D839E83AF83B88720E030E040E85B
S1130BF05FE36D817E818F8198850E942110882317
S1130C002CF481E090E09A8789873FC020E03FEF91
S1130C104FE757E46D817E818F8198850E946B1127
S1130C2018164CF520E030E040E251E469817A8105
S1130C308B819C810E946F11DC01CB01BC01CD0131
S1130C400E948D10DC01CB019A8789870FC08AEF3F
S1130C5090E09C878B878B859C850197F1F79C8717
S1130C608B8789859A8501979A87898789859A854B
S1130C70009769F714C06D817E818F8198850E94E9
S1130C808D10DC01CB019A87898789859A859E8797
S1130C908D878D859E850197F1F79E878D87F5DD7C
S1130CA0FECFCF93DF93CDB7DEB7A5970FB6F894F9
S1130CB0DEBF0FBECDBF8DA38DA1882319F483E5BC
S1130CC08D8F08C08DA1813019F483E78D8F02C008
S1130CD081E003C172C080E090E0A8E4B2E48983BB
S1130CE09A83AB83BC8320E030E44CE155E4698112
S1130CF07A818B819C810E946F11DC01CB018D83F1
S1130D009E83AF83B88720E030E040E85FE36D81E5
S1130D107E818F8198850E94211088232CF481E0A4
S1130D2090E09A8789873FC020E03FEF4FE757E480
S1130D306D817E818F8198850E946B1118164CF508
S1130D4020E030E040E251E469817A818B819C812A
S1130D500E946F11DC01CB01BC01CD010E948D10FA
S1130D60DC01CB019A8789870FC08AEF90E09C87CA
S1130D708B878B859C850197F1F79C878B87898569
S1130D809A8501979A87898789859A85009769F753
S1130D9014C06D817E818F8198850E948D10DC0145
S1130DA0CB019A87898789859A859E878D878D85CA
S1130DB09E850197F1F79E878D87CE014D9663EC52
S1130DC025DC882309F087CF80E58D8F72C080E011
S1130DD090E0A8E4B2E48F87988BA98BBA8B20E0CB
S1130DE030E44CE155E46F85788989899A890E94B9
S1130DF06F11DC01CB018B8B9C8BAD8BBE8B20E008
S1130E0030E040E85FE36B897C898D899E890E948C
S1130E10211088232CF481E090E0988F8F8B3FC0C1
S1130E2020E03FEF4FE757E46B897C898D899E89E9
S1130E300E946B1118164CF520E030E040E251E4BA
S1130E406F85788989899A890E946F11DC01CB01A9
S1130E50BC01CD010E948D10DC01CB01988F8F8BDA
S1130E600FC08AEF90E09A8F898F898D9A8D0197B0
S1130E70F1F79A8F898F8F89988D0197988F8F8B2F
S1130E808F89988D009769F714C06B897C898D8947
S1130E909E890E948D10DC01CB01988F8F8B8F89E6
S1130EA0988D9C8F8B8F8B8D9C8D0197F1F79C8FE8
S1130EB08B8FCE014D9663ECA9DB882309F087CF95
S1130EC0CE014D9661E032DB8D8D8D3429F08D8D10
S1130ED0823511F080E001C0EFCEA5960FB6F894EC
S1130EE0DEBF0FBECDBFDF91CF910895EF92FF9289
S1130EF00F931F93CF93DF93CDB7DEB7C955D109B5
S1130F000FB6F894DEBF0FBECDBFFE01E05BFF4F0E
S1130F10408351836283738384839583CE018A5A89
S1130F209F4FFC012083CE01895A9F4FFC0100830F
S1130F30CE01885A9F4FFC01F182E082CE01885B8A
S1130F409F4F26E5FC012083CE01885B9F4F9E01C5
S1130F502A5A3F4FF9012081FC01218372C080E0AD
S1130F6090E0A8E4B2E48A839B83AC83BD8320E051
S1130F7030E44CE155E46A817B818C819D810E943F
S1130F806F11DC01CB018E839F83A887B98720E092
S1130F9030E040E85FE36E817F81888599850E9417
S1130FA0211088232CF481E090E09B878A873FC03E
S1130FB020E03FEF4FE757E46E817F818885998574
S1130FC00E946B1118164CF520E030E040E251E429
S1130FD06A817B818C819D810E946F11DC01CB0130
S1130FE0BC01CD010E948D10DC01CB019B878A8757
S1130FF00FC08AEF90E09D878C878C859D85019733
S1131000F1F79D878C878A859B8501979B878A87C3
S11310108A859B85009769F714C06E817F818885D6
S113102099850E948D10DC01CB019B878A878A8574
S11310309B859F878E878E859F850197F1F79F8774
S11310408E87CE01885B9F4F63ECE0DA882309F03A
S113105086CFCE01885B9F4F27E4FC012083CE011D
S1131060805B9F4FFC0180819181892F990F990B9F
S1131070282FCE01885B9F4FFC012183CE01805B2A
S11310809F4FFC0180819181282FCE01885B9F4F67
S1131090FC012283CE01805B9F4FFC0182819381FE
S11310A0892F990F990B282FCE01885B9F4FFC0144
S11310B02383CE01805B9F4FFC0182819381282F83
S11310C0CE01885B9F4FFC012483CE01885B9F4F38
S11310D0FC011582CE01895A9F4FFC012081CE016B
S11310E0885B9F4FFC0126836FC080E090E0A8E4FA
S11310F0B2E4888B998BAA8BBB8B20E030E44CE163
S113110055E4688979898A899B890E946F11DC0179
S1131110CB018C8B9D8BAE8BBF8B20E030E040E805
S11311205FE36C897D898E899F898BD788232CF412
S113113081E090E0998F888F3DC020E03FEF4FE73A
S113114057E46C897D898E899F890E946B111816DA
S113115044F520E030E040E251E4688979898A89E5
S11311609B890E946F11DC01CB01BC01CD01D5D755
S1131170DC01CB01998F888F0FC08AEF90E09B8FA1
S11311808A8F8A8D9B8D0197F1F79B8F8A8F888D2B
S1131190998D0197998F888F888D998D009769F71C
S11311A013C06C897D898E899F89B7D7DC01CB01F7
S11311B0998F888F888D998D9D8F8C8F8C8D9D8D27
S11311C00197F1F79D8F8C8FCE01885B9F4F63EC65
S11311D01DDA882309F089CFCE01885B9F4F20E573
S11311E0FC0120836FC080E090E0A8E4B2E48E8F1D
S11311F09F8FA8A3B9A320E030E44CE155E46E8DA1
S11312007F8D88A199A10E946F11DC01CB018AA373
S11312109BA3ACA3BDA320E030E040E85FE36AA158
S11312207BA18CA19DA10DD788232CF481E090E0B3
S11312309FA38EA33DC020E03FEF4FE757E46AA190
S11312407BA18CA19DA10E946B11181644F520E08E
S113125030E040E251E46E8D7F8D88A199A10E9417
S11312606F11DC01CB01BC01CD0157D7DC01CB01EF
S11312709FA38EA30FC08AEF90E099A788A788A5A3
S113128099A50197F1F799A788A78EA19FA1019726
S11312909FA38EA38EA19FA1009769F713C06AA193
S11312A07BA18CA19DA139D7DC01CB019FA38EA387
S11312B08EA19FA19BA78AA78AA59BA50197F1F759
S11312C09BA78AA7CE01885B9F4F63EC9FD9882395
S11312D009F089CFCE01885B9F4F61E027D9CE0109
S11312E0885B9F4FFC018081893411F480E09EC1AA
S11312F0CE01885B9F4FFC018081833511F482E02D
S113130095C1CE01885B9F4FFC018081853411F427
S113131081E08CC180E090E0A8E4B2E48CA79DA7B2
S1131320AEA7BFA720E030E44CE155E46CA57DA551
S11313308EA59FA5D4D7DC01CB0188AB99ABAAAB12
S1131340BBAB20E030E040E85FE368A979A98AA953
S11313509BA977D688232CF481E090E09DAB8CABDD
S11313603BC020E03FEF4FE757E468A979A98AA979
S11313709BA9B1D718163CF520E030E040E251E4D7
S11313806CA57DA58EA59FA5AAD7DC01CB01BC01C8
S1131390CD01C3D6DC01CB019DAB8CAB0FC08AEF72
S11313A090E09FAB8EAB8EA99FA90197F1F79FABFD
S11313B08EAB8CA99DA901979DAB8CAB8CA99DA9E3
S11313C0009769F713C068A979A98AA99BA9A5D62A
S11313D0DC01CB019DAB8CAB8CA99DA999AF88AFE7
S11313E088AD99AD0197F1F799AF88AFCE01885ACE
S11313F09F4FFC0180819181009709F416C1CE01B1
S1131400885A9F4FFC0180819181FC010995898351
S11314108981813011F481E009C18981823009F028
S113142004C1CE01885B9F4F27E4FC012083CE01D9
S1131430805B9F4FFC0180819181892F990F990BCB
S1131440282FCE01885B9F4FFC012183CE01805B56
S11314509F4FFC0180819181282FCE01885B9F4F93
S1131460FC012283CE01805B9F4FFC01828193812A
S1131470892F990F990B282FCE01885B9F4FFC0170
S11314802383CE01805B9F4FFC0182819381282FAF
S1131490CE01885B9F4FFC012483CE01885B9F4F64
S11314A0FC011582CE01895A9F4FFC012081CE0197
S11314B0885B9F4FFC012683AFC080E090E0A8E4E6
S11314C0B2E48AAF9BAFACAFBDAF8E01025C1F4FDD
S11314D020E030E44CE155E46AAD7BAD8CAD9DADCC
S11314E0FED6DC01CB01F80180839183A283B38310
S11314F0CE01CE9620E030E040E85FE3FC0160815D
S11315007181828193819DD588234CF4CE018E5BB9
S11315109F4F21E030E0FC013183208363C0CE0182
S1131520CE9620E03FEF4FE757E4FC0160817181E4
S113153082819381D0D618160CF044C020E030E0AC
S113154040E251E46AAD7BAD8CAD9DADC8D6DC0103
S1131550CB018E010E5B1F4FBC01CD01DED5DC013A
S1131560CB01F8019183808324C0CE018C5B9F4F13
S11315702AEF30E0FC0131832083CE018C5B9F4F46
S1131580FC01808191810197F1F79E012C5B3F4F13
S1131590F90191838083CE018E5B9F4F9E012E5B68
S11315A03F4FF9012081318121503109FC01318300
S11315B02083CE018E5B9F4FFC0180819181009737
S11315C0A1F62AC08E010E5B1F4FCE01CE96FC0100
S11315D06081718182819381A0D5DC01CB01F80106
S11315E091838083CE018A5B9F4F9E012E5B3F4F88
S11315F0F90120813181FC0131832083CE018A5B92
S11316009F4FFC01808191810197F1F79E012A5B34
S11316103F4FF90191838083CE01885B9F4F63EC38
S11316200E940603882309F048CFD6CDC75ADF4F5E
S11316300FB6F894DEBF0FBECDBFDF91CF911F91DF
S11316400F91FF90EF9008951F93CF93DF93CDB741
S1131650DEB7E0970FB6F894DEBF0FBECDBF4BA741
S11316605CA76DA77EA78FA798AB89E48D8F8BA508
S11316709CA5892F990F990B8E8F8BA59CA58F8F75
S11316808DA59EA5892F990F990B88A38DA59EA53D
S113169089A31AA28FA598A98BA36CC080E090E0BF
S11316A0A8E4B2E489839A83AB83BC8320E030E46A
S11316B04CE155E469817A818B819C8110D6DC01EF
S11316C0CB018D839E83AF83B88720E030E040E870
S11316D05FE36D817E818F819885B3D488232CF458
S11316E081E090E09A8789873BC020E03FEF4FE795
S11316F057E46D817E818F819885EDD518163CF570
S113170020E030E040E251E469817A818B819C8160
S1131710E6D5DC01CB01BC01CD01FFD4DC01CB015A
S11317209A8789870FC08AEF90E09C878B878B8587
S11317309C850197F1F79C878B8789859A8501970A
S11317409A87898789859A85009769F713C06D817F
S11317507E818F819885E1D4DC01CB019A878987CA
S113176089859A859E878D878D859E850197F1F75A
S11317709E878D87CE014D9663EC0E9406038823D5
S113178009F08CCF80E58D8F6CC080E090E0A8E4F8
S1131790B2E48F87988BA98BBA8B20E030E44CE1BC
S11317A055E46F85788989899A8999D5DC01CB01BB
S11317B08B8B9C8BAD8BBE8B20E030E040E85FE3ED
S11317C06B897C898D899E893CD488232CF481E0A3
S11317D090E0988F8F8B3BC020E03FEF4FE757E4BA
S11317E06B897C898D899E8976D518163CF520E015
S11317F030E040E251E46F85788989899A896FD510
S1131800DC01CB01BC01CD0188D4DC01CB01988F74
S11318108F8B0FC08AEF90E09A8F898F898D9A8D74
S11318200197F1F79A8F898F8F89988D0197988FF7
S11318308F8B8F89988D009769F713C06B897C898A
S11318408D899E896AD4DC01CB01988F8F8B8F8917
S1131850988D9C8F8B8F8B8D9C8D0197F1F79C8F2E
S11318608B8FCE014D9663EC0E940603882309F00A
S11318708CCFCE014D9661E00E9496028E8D882F0A
S113188090E0382F22278F8D882F90E0822B932B86
S11318909EA38DA388A1882F90E0382F222789A1A9
S11318A0882F90E0822B932B98A78FA38AA1882F4F
S11318B090E0382F22278BA1882F90E0822B932B46
S11318C09AA789A72DA13EA18BA59CA5A901481B78
S11318D0590BCA01AA2797FDA095BA2FBC01CD01C7
S11318E04AD4DC01CB01BF7711E020E030E040EACC
S11318F050E4BC01CD01EFD418160CF010E081E0E7
S11319008127882309F444C02FA138A58DA59EA55D
S1131910A901481B590BCA01AA2797FDA095BA2F04
S1131920BC01CD0128D4DC01CB01BF7711E020E05C
S113193030E040EA50E4BC01CD01CDD418160CF0DF
S113194010E081E08127882319F129A53AA58FA504
S113195098A9A901481B590BCA01AA2797FDA0956C
S1131960BA2FBC01CD0107D4DC01CB01BF7711E054
S113197020E030E040EA50E4BC01CD01ACD41816BC
S11319800CF010E081E08127882311F080E001C091
S11319906CCEE0960FB6F894DEBF0FBECDBFDF91DC
S11319A0CF911F9108950F931F93CF93DF9300D08E
S11319B000D0CDB7DEB79B838A836C83809174019A
S11319C08A3010F080E08EC080917401082F10E0FE
S11319D086E090E001D59C01C801880F991F805AC8
S11319E09E4FFC013183208380917401882F90E005
S11319F0880F991F805A9E4FFC0180819181009726
S1131A0011F48FEF6FC080917401882F90E0880FDC
S1131A10991F805A9E4FFC01808191812A813B81CC
S1131A20FC013183208380917401882F90E0880F1A
S1131A30991F805A9E4FFC01808191812C81FC0169
S1131A402283198216C080917401882F90E0880F38
S1131A50991F805A9E4FFC01208131818981882FF2
S1131A6090E0820F931F0396FC01108289818F5F9F
S1131A7089838981833038F38A819B8101972A8104
S1131A803B8121503109F9012081622F2C81422FA1
S1131A9050E021E030E002C0220F331F4A95E2F704
S1131AA020952623FC0120838A819B81FC0180816F
S1131AB0482F8C81282F30E081E090E002C0880F0D
S1131AC0991F2A95E2F7842B282F8A819B81FC0198
S1131AD02083809174018983809174018F5F809346
S1131AE0740189810F900F900F900F90DF91CF9127
S1131AF01F910F910895CF93DF931F92CDB7DEB757
S1131B0089838981882F90E0880F991F805A9E4F7E
S1131B10FC0180819181FC0123818981882F90E0DF
S1131B20880F991F805A9E4FFC0180819181FC018E
S1131B308481282B8981882F90E0880F991F805AEF
S1131B409E4FFC0180819181FC018581922F982B0D
S1131B5081E0992309F080E00F90DF91CF910895FF
S1131B60CF93DF9300D0CDB7DEB78A8319828A8101
S1131B70882F90E0880F991F805A9E4FFC01808126
S1131B809181FC01808191810297FC018081882FE1
S1131B9090E02A81222F30E0220F331F205A3E4F3B
S1131BA0F90120813181F9012281222F30E0022EB6
S1131BB002C0959587950A94E2F78170898389819B
S1131BC00F900F90DF91CF910895EF92FF920F93B2
S1131BD01F93CF93DF931F92CDB7DEB7809175012A
S1131BE08F5F8093750180917501833010F010929E
S1131BF0750119821AC08981882F90E0880F991F76
S1131C00805A9E4FFC01E080F18080917501082F7D
S1131C1010E08981A5DF282FC701800F911F03964B
S1131C20FC01208389818F5F89838091740199816C
S1131C30981708F30F90DF91CF911F910F91FF90A8
S1131C40EF9008950F931F93CF93DF9300D0CDB7F8
S1131C50DEB79A83898380E890E0FC01108281E8F2
S1131C6090E029E0FC01208308E810E089819A8152
S1131C70CC01A0E0B0E0BC01CD017BD2DC01CB0102
S1131C809C01AD0160E876E988E19BE4DED1DC01EA
S1131C90CB0120E030E040E05FE3BC01CD016DD139
S1131CA0DC01CB01BC01CD0138D2DC01CB01F80150
S1131CB0918380838FE690E022E0FC0120838FE50E
S1131CC090E02FE530E0F90120812068FC012083B9
S1131CD00F900F90DF91CF911F910F9108951F9254
S1131CE00F9200905F000F92112400905B000F92FE
S1131CF02F933F934F935F936F937F938F939F9310
S1131D00AF93BF93EF93FF93CF93DF93CDB7DEB73A
S1131D105CDFDF91CF91FF91EF91BF91AF919F91E4
S1131D208F917F916F915F914F913F912F910F9080
S1131D3000925B000F9000925F000F901F90189527
S1131D401F920F9200905F000F92112400905B008D
S1131D500F922F933F938F939F93EF93FF93CF9380
S1131D60DF93CDB7DEB78091B6018823D1F080919F
S1131D70B60181508093B60186EC90E02091B701C2
S1131D80222F30E02A583E4FF9012081FC012083A4
S1131D908091B7018F5F8093B701803411F4109262
S1131DA0B701DF91CF91FF91EF919F918F913F9177
S1131DB02F910F9000925B000F9000925F000F90A4
S1131DC01F9018951F920F9200905F000F9211249C
S1131DD000905B000F922F933F938F939F93EF9309
S1131DE0FF93CF93DF931F92CDB7DEB780EC90E0E3
S1131DF0FC01808189838981882F90E08C719927E7
S1131E000097D1F48091F801882F90E026EC30E01F
S1131E10F901208188549E4FFC0120838091F801B0
S1131E208F5F8093F801803411F41092F80180914F
S1131E30F9018F5F8093F9010F90DF91CF91FF91AA
S1131E40EF919F918F913F912F910F9000925B00A2
S1131E500F9000925F000F901F9018951F920F92A1
S1131E6000905F000F92112400905B000F922F935B
S1131E703F938F939F93EF93FF93CF93DF93CDB7CC
S1131E80DEB780913A028823D1F080913A028150E2
S1131E9080933A028EEC90E020913B02222F30E0B6
S1131EA026503E4FF9012081FC01208380913B02A2
S1131EB08F5F80933B02803411F410923B02DF91D8
S1131EC0CF91FF91EF919F918F913F912F910F901F
S1131ED000925B000F9000925F000F901F90189586
S1131EE01F920F9200905F000F92112400905B00EC
S1131EF00F922F933F938F939F93EF93FF93CF93DF
S1131F00DF931F92CDB7DEB788EC90E0FC018081AF
S1131F1089838981882F90E08C7199270097D1F467
S1131F2080917C02882F90E02EEC30E0F901208132
S1131F30845C9D4FFC01208380917C028F5F8093A1
S1131F407C02803411F410927C0280917D028F5FB8
S1131F5080937D020F90DF91CF91FF91EF919F913C
S1131F608F913F912F910F9000925B000F90009200
S1131F705F000F901F9018955058BB27AA270ED0CA
S1131F8070C161D130F066D120F031F49F3F11F47B
S1131F901EF456C10EF4E095E7FB4CC1E92F72D153
S1131FA080F3BA17620773078407950718F071F472
S1131FB09EF58AC10EF4E0950B2EBA2FA02D0B01CD
S1131FC0B90190010C01CA01A0011124FF27591B7A
S1131FD099F0593F50F4503E68F11A16F040A22F80
S1131FE0232F342F4427585FF3CF469537952795F1
S1131FF0A795F0405395C9F77EF41F16BA0B620BF0
S1132000730B840BBAF09150A1F0FF0FBB1F661F36
S1132010771F881FC2F70EC0BA0F621F731F841F79
S113202048F4879577956795B795F7959E3F08F09F
S1132030B3CF9395880F08F09927EE0F979587955E
S11320400895D4D008F481E008950CD00AC102D1D7
S113205040F0F9D030F021F45F3F19F0EBC051119A
S113206034C1EEC00FD198F39923C9F35523B1F3CA
S1132070951B550BBB27AA2762177307840738F0F3
S11320809F5F5F4F220F331F441FAA1FA9F333D052
S11320900E2E3AF0E0E830D091505040E695001C06
S11320A0CAF729D0FE2F27D0660F771F881FBB1FC2
S11320B0261737074807AB07B0E809F0BB0B802D9C
S11320C0BF01FF2793585F4F2AF09E3F510568F0E8
S11320D0B1C0FBC05F3FECF3983EDCF38695779587
S11320E06795B795F7959F5FC9F7880F911D9695EA
S11320F0879597F90895E1E0660F771F881FBB1F46
S1132100621773078407BA0720F0621B730B840BF2
S1132110BA0BEE1F88F7E0950895BCD088F09F575E
S113212090F0B92F9927B751A0F0D1F0660F771F1F
S1132130881F991F1AF0BA95C9F712C0B13081F0FF
S1132140C3D0B1E00895C0C0672F782F8827B85F47
S113215039F0B93FCCF3869577956795B395D9F760
S11321603EF490958095709561957F4F8F4F9F4F6A
S11321700895E89409C097FB3EF490958095709576
S113218061957F4F8F4F9F4F9923A9F0F92F96E9BF
S1132190BB279395F695879577956795B795F11134
S11321A0F8CFFAF4BB0F11F460FF1BC06F5F7F4FD1
S11321B08F4F9F4F16C0882311F096E911C07723E3
S11321C021F09EE8872F762F05C0662371F096E8EC
S11321D0862F70E060E02AF09A95660F771F881FBB
S11321E0DAF7880F9695879597F90895990F00085F
S11321F0550FAA0BE0E8FEEF16161706E807F907D5
S1132200C0F012161306E407F50798F0621B730B6F
S1132210840B950B39F40A2661F0232B242B252BF0
S113222021F408950A2609F4A140A6958FEF811D93
S1132230811D089597F99F6780E870E060E0089534
S11322409FEF80EC089500240A94161617061806CA
S11322500906089500240A941216130614060506A6
S11322600895092E0394000C11F4882352F0BB0F37
S113227040F4BF2B11F460FF04C06F5F7F4F8F4F9A
S11322809F4F089557FD9058440F551F59F05F3FD5
S113229071F04795880F97FB991F61F09F3F79F084
S11322A087950895121613061406551FF2CF469506
S11322B0F1DF08C0161617061806991FF1CF869588
S11322C07105610508940895E894BB27662777276C
S11322D0CB0197F908958ADF08F48FEF08950BD0A6
S11322E0C0CFB1DF28F0B6DF18F0952309F0A2CFF4
S11322F0A7CF1124EACFC6DFA0F3959FD1F3950FA2
S113230050E0551F629FF001729FBB27F00DB11D75
S1132310639FAA27F00DB11DAA1F649F6627B00D05
S1132320A11D661F829F2227B00DA11D621F739FEE
S1132330B00DA11D621F839FA00D611D221F749FFC
S11323403327A00D611D231F849F600D211D822F43
S1132350762F6A2F11249F5750408AF0E1F088238A
S11323604AF0EE0FFF1FBB1F661F771F881F915097
S11323705040A9F79E3F510570F05CCFA6CF5F3F58
S1132380ECF3983EDCF3869577956795B795F795CA
S1132390E7959F5FC1F7FE2B880F911D9695879552
S11323A097F908950F931F93CF93DF93869F80012E
S11323B0879F100D969F100D1124C8010DD0EC01BC
S11323C0009721F0A80160E070E02DD1CE01DF91EB
S11323D0CF911F910F910895CF93DF938230910590
S11323E010F482E090E0E0918402F091850220E014
S11323F030E0A0E0B0E0309739F1408151814817D6
S11324005907B8F04817590771F4828193811097DE
S113241029F013969C938E9312972CC09093850267
S11324208093840227C02115310531F042175307E8
S113243018F0A901DB0101C0EF019A01BD01DF0120
S11324400280F381E02DD7CF21153105F9F0281B47
S1132450390B2430310580F48A819B816115710523
S113246021F0FB019383828304C0909385028093BF
S11324708402FE01329644C0FE01E20FF31F8193F1
S1132480919322503109398328833AC020918202E2
S113249030918302232B41F42091020130910301F6
S11324A03093830220938202209100013091010134
S11324B02115310541F42DB73EB7409104015091E7
S11324C00501241B350BE0918202F0918302E2178F
S11324D0F307A0F42E1B3F0B2817390778F0AC0143
S11324E04E5F5F4F2417350748F04E0F5F1F509320
S11324F08302409382028193919302C0E0E0F0E072
S1132500CF01DF91CF910895CF93DF93009709F422
S113251087C0FC01329713821282C0918402D09149
S11325208502209781F420813181280F391F809101
S11325308202909183028217930779F5F0938302C4
S1132540E09382026DC0DE0120E030E0AE17BF07E9
S113255050F412964D915C9113979D0141155105CC
S113256009F1DA01F3CFB383A28340815181840F4F
S1132570951F8A179B0771F48D919C911197840F75
S1132580951F02969183808312968D919C91139747
S1132590938382832115310529F4F0938502E09316
S11325A084023EC0D9011396FC93EE9312974D9189
S11325B05D91A40FB51FEA17FB0779F4808191811F
S11325C0840F951F0296D90111969C938E93828154
S11325D0938113969C938E931297E0E0F0E08A81A6
S11325E09B81009719F0FE01EC01F9CFCE01029610
S11325F028813981820F931F2091820230918302B6
S11326002817390769F4309729F41092850210923B
S1132610840202C013821282D0938302C093820286
S1132620DF91CF910895DC0101C06D93415050407A
S10B2630E0F70895F894FFCFD0
S1132638000086022000F40100000000320190032B
S1132648F401F4010000320190030000F4010000D9
S11126583201900300000000000032019003E4
S9030000FC
